{
  "address": "0xb34219dd4A76B79B2ddFB768C112B6256c99b36A",
  "abi": [
    {
      "inputs": [
        {
          "internalType": "contract IPyth",
          "name": "_pyth",
          "type": "address"
        },
        {
          "internalType": "string[]",
          "name": "symbols_",
          "type": "string[]"
        },
        {
          "internalType": "bytes32[]",
          "name": "feeds_",
          "type": "bytes32[]"
        },
        {
          "internalType": "uint256[]",
          "name": "baseUnits_",
          "type": "uint256[]"
        }
      ],
      "stateMutability": "nonpayable",
      "type": "constructor"
    },
    {
      "inputs": [
        {
          "internalType": "string",
          "name": "",
          "type": "string"
        }
      ],
      "name": "assetIds",
      "outputs": [
        {
          "internalType": "bytes32",
          "name": "",
          "type": "bytes32"
        }
      ],
      "stateMutability": "view",
      "type": "function"
    },
    {
      "inputs": [
        {
          "internalType": "string",
          "name": "",
          "type": "string"
        }
      ],
      "name": "baseUnits",
      "outputs": [
        {
          "internalType": "uint256",
          "name": "",
          "type": "uint256"
        }
      ],
      "stateMutability": "view",
      "type": "function"
    },
    {
      "inputs": [
        {
          "internalType": "contract CToken",
          "name": "cToken",
          "type": "address"
        }
      ],
      "name": "getPrice",
      "outputs": [
        {
          "internalType": "uint256",
          "name": "",
          "type": "uint256"
        }
      ],
      "stateMutability": "view",
      "type": "function"
    },
    {
      "inputs": [
        {
          "internalType": "contract CToken",
          "name": "cToken",
          "type": "address"
        }
      ],
      "name": "getRawPrice",
      "outputs": [
        {
          "components": [
            {
              "internalType": "int64",
              "name": "price",
              "type": "int64"
            },
            {
              "internalType": "uint64",
              "name": "conf",
              "type": "uint64"
            },
            {
              "internalType": "int32",
              "name": "expo",
              "type": "int32"
            },
            {
              "internalType": "uint256",
              "name": "publishTime",
              "type": "uint256"
            }
          ],
          "internalType": "struct PythStructs.Price",
          "name": "data",
          "type": "tuple"
        }
      ],
      "stateMutability": "view",
      "type": "function"
    },
    {
      "inputs": [
        {
          "internalType": "contract CToken",
          "name": "cToken",
          "type": "address"
        }
      ],
      "name": "getRawPriceUnsafe",
      "outputs": [
        {
          "components": [
            {
              "internalType": "int64",
              "name": "price",
              "type": "int64"
            },
            {
              "internalType": "uint64",
              "name": "conf",
              "type": "uint64"
            },
            {
              "internalType": "int32",
              "name": "expo",
              "type": "int32"
            },
            {
              "internalType": "uint256",
              "name": "publishTime",
              "type": "uint256"
            }
          ],
          "internalType": "struct PythStructs.Price",
          "name": "data",
          "type": "tuple"
        }
      ],
      "stateMutability": "view",
      "type": "function"
    },
    {
      "inputs": [
        {
          "internalType": "contract CToken",
          "name": "cToken",
          "type": "address"
        }
      ],
      "name": "getUnderlyingPrice",
      "outputs": [
        {
          "internalType": "uint256",
          "name": "",
          "type": "uint256"
        }
      ],
      "stateMutability": "view",
      "type": "function"
    },
    {
      "inputs": [],
      "name": "isPriceOracle",
      "outputs": [
        {
          "internalType": "bool",
          "name": "",
          "type": "bool"
        }
      ],
      "stateMutability": "view",
      "type": "function"
    },
    {
      "inputs": [],
      "name": "pyth",
      "outputs": [
        {
          "internalType": "contract IPyth",
          "name": "",
          "type": "address"
        }
      ],
      "stateMutability": "view",
      "type": "function"
    },
    {
      "inputs": [
        {
          "internalType": "bytes[]",
          "name": "priceUpdateData",
          "type": "bytes[]"
        }
      ],
      "name": "updateFeeds",
      "outputs": [],
      "stateMutability": "payable",
      "type": "function"
    }
  ],
  "transactionHash": "0x42593813787fb8f913f2c44709266eb7c59b1c299d76d6f605a41850ffc54712",
  "args": [
    "0xA2aa501b19aff244D90cc15a4Cf739D2725B5729",
    [
      "laWETH",
      "laETH",
      "laUSDB"
    ],
    [
      "0xff61491a931112ddf1bd8147cd1b641375f79f5825126d665480874634fd0ace",
      "0xff61491a931112ddf1bd8147cd1b641375f79f5825126d665480874634fd0ace",
      "0xeaa020c61cc479712813461ce153894a96a6c00b21ed0cfc2798d1f9a9e9c94a"
    ],
    [
      "1000000000000000000",
      "1000000000000000000",
      "1000000000000000000"
    ]
  ],
  "numDeployments": 4,
  "solcInputHash": "a43e4584a912d4e55f21be1c37bf77ed",
  "bytecode": "0x60a06040523480156200001157600080fd5b506040516200132738038062001327833981016040819052620000349162000298565b8151835114801562000047575080518351145b801562000055575060008351115b620000935760405162461bcd60e51b815260206004820152600a60248201526977726f6e67206172677360b01b604482015260640160405180910390fd5b60005b83518110156200016d57828181518110620000b557620000b56200041c565b60200260200101516000858381518110620000d457620000d46200041c565b6020026020010151604051620000eb919062000432565b9081526020016040518091039020819055508181815181106200011257620001126200041c565b602002602001015160018583815181106200013157620001316200041c565b602002602001015160405162000148919062000432565b9081526040519081900360200190205580620001648162000450565b91505062000096565b505050506001600160a01b03166080526200047a565b634e487b7160e01b600052604160045260246000fd5b604051601f8201601f191681016001600160401b0381118282101715620001c457620001c462000183565b604052919050565b60006001600160401b03821115620001e857620001e862000183565b5060051b60200190565b60005b838110156200020f578181015183820152602001620001f5565b838111156200021f576000848401525b50505050565b600082601f8301126200023757600080fd5b81516020620002506200024a83620001cc565b62000199565b82815260059290921b840181019181810190868411156200027057600080fd5b8286015b848110156200028d578051835291830191830162000274565b509695505050505050565b60008060008060808587031215620002af57600080fd5b84516001600160a01b0381168114620002c757600080fd5b602086810151919550906001600160401b0380821115620002e757600080fd5b818801915088601f830112620002fc57600080fd5b81516200030d6200024a82620001cc565b81815260059190911b8301840190848101908b8311156200032d57600080fd5b8585015b83811015620003c0578051858111156200034a57600080fd5b8601603f81018e136200035c57600080fd5b878101518681111562000373576200037362000183565b62000387601f8201601f19168a0162000199565b8181528f60408385010111156200039e5760008081fd5b620003b0828b830160408601620001f2565b8552505091860191860162000331565b5060408b01519098509450505080831115620003db57600080fd5b620003e989848a0162000225565b945060608801519250808311156200040057600080fd5b5050620004108782880162000225565b91505092959194509250565b634e487b7160e01b600052603260045260246000fd5b6000825162000446818460208701620001f2565b9190910192915050565b60006000198214156200047357634e487b7160e01b600052601160045260246000fd5b5060010190565b608051610e6e620004b960003960008181610200015281816102ea015281816104af015281816105060152818161058201526107b10152610e6e6000f3fe6080604052600436106100855760003560e01c806366331bba1161005957806366331bba14610194578063b1055baf146101b9578063bc36c0a9146101d9578063f98d06f0146101ee578063fc57d4df1461023a57600080fd5b80621a1ca61461008a57806341976e09146100f65780634889ca9014610124578063510036831461015c575b600080fd5b34801561009657600080fd5b506100aa6100a536600461090b565b61025a565b6040516100ed9190815160070b815260208083015167ffffffffffffffff169082015260408083015160030b908201526060918201519181019190915260800190565b60405180910390f35b34801561010257600080fd5b5061011661011136600461090b565b6103a0565b6040519081526020016100ed565b34801561013057600080fd5b5061011661013f3660046109a3565b805160208183018101805160008252928201919093012091525481565b34801561016857600080fd5b506101166101773660046109a3565b805160208183018101805160018252928201919093012091525481565b3480156101a057600080fd5b506101a9600181565b60405190151581526020016100ed565b3480156101c557600080fd5b506100aa6101d436600461090b565b61041f565b6101ec6101e7366004610a23565b6104ec565b005b3480156101fa57600080fd5b506102227f000000000000000000000000000000000000000000000000000000000000000081565b6040516001600160a01b0390911681526020016100ed565b34801561024657600080fd5b5061011661025536600461090b565b61068d565b6040805160808101825260008082526020820181905291810182905260608101919091526000826001600160a01b03166395d89b416040518163ffffffff1660e01b8152600401600060405180830381865afa1580156102be573d6000803e3d6000fd5b505050506040513d6000823e601f3d908101601f191682016040526102e69190810190610ac4565b90507f00000000000000000000000000000000000000000000000000000000000000006001600160a01b03166396834ad36000836040516103279190610b3b565b908152604051908190036020018120546001600160e01b031960e084901b1682526103589160040190815260200190565b608060405180830381865afa158015610375573d6000803e3d6000fd5b505050506040513d601f19601f820116820180604052508101906103999190610b57565b9392505050565b600080826001600160a01b03166395d89b416040518163ffffffff1660e01b8152600401600060405180830381865afa1580156103e1573d6000803e3d6000fd5b505050506040513d6000823e601f3d908101601f191682016040526104099190810190610ac4565b905060006104168261074a565b50949350505050565b6040805160808101825260008082526020820181905291810182905260608101919091526000826001600160a01b03166395d89b416040518163ffffffff1660e01b8152600401600060405180830381865afa158015610483573d6000803e3d6000fd5b505050506040513d6000823e601f3d908101601f191682016040526104ab9190810190610ac4565b90507f00000000000000000000000000000000000000000000000000000000000000006001600160a01b03166331d98b3f6000836040516103279190610b3b565b60405163d47eed4560e01b81526000906001600160a01b037f0000000000000000000000000000000000000000000000000000000000000000169063d47eed459061053d9086908690600401610c17565b602060405180830381865afa15801561055a573d6000803e3d6000fd5b505050506040513d601f19601f8201168201806040525081019061057e9190610cb2565b90507f00000000000000000000000000000000000000000000000000000000000000006001600160a01b031663ef9e5e288285856040518463ffffffff1660e01b81526004016105cf929190610c17565b6000604051808303818588803b1580156105e857600080fd5b505af11580156105fc573d6000803e3d6000fd5b5050604051600093503392504791508381818185875af1925050503d8060008114610643576040519150601f19603f3d011682016040523d82523d6000602084013e610648565b606091505b50509050806106875760405162461bcd60e51b81526020600482015260066024820152656e6f74206f6b60d01b60448201526064015b60405180910390fd5b50505050565b600080826001600160a01b03166395d89b416040518163ffffffff1660e01b8152600401600060405180830381865afa1580156106ce573d6000803e3d6000fd5b505050506040513d6000823e601f3d908101601f191682016040526106f69190810190610ac4565b905060006107038261074a565b5090506001826040516107169190610b3b565b9081526040519081900360200190205461073882670de0b6b3a7640000610ce1565b6107429190610d00565b949350505050565b60008060008360405161075d9190610b3b565b908152604051908190036020019020546107ad5760405162461bcd60e51b81526020600482015260116024820152701b5a5cdcda5b99c81c1c9a58d951995959607a1b604482015260640161067e565b60007f00000000000000000000000000000000000000000000000000000000000000006001600160a01b03166396834ad36000866040516107ee9190610b3b565b908152604051908190036020018120546001600160e01b031960e084901b16825261081f9160040190815260200190565b608060405180830381865afa15801561083c573d6000803e3d6000fd5b505050506040513d601f19601f820116820180604052508101906108609190610b57565b90506000816000015160070b136108b05760405162461bcd60e51b815260206004820152601460248201527370726963652063616e6e6f74206265207a65726f60601b604482015260640161067e565b600081604001516108c090610d22565b6108d19063ffffffff16600a610e2c565b82516108ef9067ffffffffffffffff16670de0b6b3a7640000610ce1565b6108f99190610d00565b60609092015191959194509092505050565b60006020828403121561091d57600080fd5b81356001600160a01b038116811461039957600080fd5b634e487b7160e01b600052604160045260246000fd5b604051601f8201601f1916810167ffffffffffffffff8111828210171561097357610973610934565b604052919050565b600067ffffffffffffffff82111561099557610995610934565b50601f01601f191660200190565b6000602082840312156109b557600080fd5b813567ffffffffffffffff8111156109cc57600080fd5b8201601f810184136109dd57600080fd5b80356109f06109eb8261097b565b61094a565b818152856020838501011115610a0557600080fd5b81602084016020830137600091810160200191909152949350505050565b60008060208385031215610a3657600080fd5b823567ffffffffffffffff80821115610a4e57600080fd5b818501915085601f830112610a6257600080fd5b813581811115610a7157600080fd5b8660208260051b8501011115610a8657600080fd5b60209290920196919550909350505050565b60005b83811015610ab3578181015183820152602001610a9b565b838111156106875750506000910152565b600060208284031215610ad657600080fd5b815167ffffffffffffffff811115610aed57600080fd5b8201601f81018413610afe57600080fd5b8051610b0c6109eb8261097b565b818152856020838501011115610b2157600080fd5b610b32826020830160208601610a98565b95945050505050565b60008251610b4d818460208701610a98565b9190910192915050565b600060808284031215610b6957600080fd5b6040516080810167ffffffffffffffff8282108183111715610b8d57610b8d610934565b81604052845191508160070b8214610ba457600080fd5b9082526020840151908082168214610bbb57600080fd5b5060208201526040830151600381900b8114610bd657600080fd5b60408201526060928301519281019290925250919050565b81835281816020850137506000828201602090810191909152601f909101601f19169091010190565b60208082528181018390526000906040600585901b8401810190840186845b87811015610ca557868403603f190183528135368a9003601e19018112610c5c57600080fd5b8901803567ffffffffffffffff811115610c7557600080fd5b8036038b1315610c8457600080fd5b610c918682898501610bee565b955050509184019190840190600101610c36565b5091979650505050505050565b600060208284031215610cc457600080fd5b5051919050565b634e487b7160e01b600052601160045260246000fd5b6000816000190483118215151615610cfb57610cfb610ccb565b500290565b600082610d1d57634e487b7160e01b600052601260045260246000fd5b500490565b60008160030b637fffffff19811415610d3d57610d3d610ccb565b60000392915050565b600181815b80851115610d81578160001904821115610d6757610d67610ccb565b80851615610d7457918102915b93841c9390800290610d4b565b509250929050565b600082610d9857506001610e26565b81610da557506000610e26565b8160018114610dbb5760028114610dc557610de1565b6001915050610e26565b60ff841115610dd657610dd6610ccb565b50506001821b610e26565b5060208310610133831016604e8410600b8410161715610e04575081810a610e26565b610e0e8383610d46565b8060001904821115610e2257610e22610ccb565b0290505b92915050565b60006103998383610d8956fea2646970667358221220c4d37b01f783ba7456644f2005db66def2756b9e0782457429387db26deb411364736f6c634300080a0033",
  "devdoc": {
    "kind": "dev",
    "methods": {
      "getUnderlyingPrice(address)": {
        "params": {
          "cToken": "The cToken to get the underlying price of"
        },
        "returns": {
          "_0": "The underlying asset price mantissa (scaled by 1e18).  Zero means the price is unavailable."
        }
      }
    },
    "version": 1
  },
  "userdoc": {
    "kind": "user",
    "methods": {
      "getUnderlyingPrice(address)": {
        "notice": "Get the underlying price of a cToken asset"
      },
      "isPriceOracle()": {
        "notice": "Indicator that this is a PriceOracle contract (for inspection)"
      }
    },
    "version": 1
  },
  "storageLayout": {
    "storage": [
      {
        "astId": 10985,
        "contract": "contracts/PriceOracle/PythPriceOracle.sol:PythPriceOracle",
        "label": "assetIds",
        "offset": 0,
        "slot": "0",
        "type": "t_mapping(t_string_memory_ptr,t_bytes32)"
      },
      {
        "astId": 10989,
        "contract": "contracts/PriceOracle/PythPriceOracle.sol:PythPriceOracle",
        "label": "baseUnits",
        "offset": 0,
        "slot": "1",
        "type": "t_mapping(t_string_memory_ptr,t_uint256)"
      }
    ],
    "types": {
      "t_bytes32": {
        "encoding": "inplace",
        "label": "bytes32",
        "numberOfBytes": "32"
      },
      "t_mapping(t_string_memory_ptr,t_bytes32)": {
        "encoding": "mapping",
        "key": "t_string_memory_ptr",
        "label": "mapping(string => bytes32)",
        "numberOfBytes": "32",
        "value": "t_bytes32"
      },
      "t_mapping(t_string_memory_ptr,t_uint256)": {
        "encoding": "mapping",
        "key": "t_string_memory_ptr",
        "label": "mapping(string => uint256)",
        "numberOfBytes": "32",
        "value": "t_uint256"
      },
      "t_string_memory_ptr": {
        "encoding": "bytes",
        "label": "string",
        "numberOfBytes": "32"
      },
      "t_uint256": {
        "encoding": "inplace",
        "label": "uint256",
        "numberOfBytes": "32"
      }
    }
  }
}